{
  "contractName": "FraudLogger",
  "abi": [
    {
      "anonymous": false,
      "inputs": [
        {
          "indexed": true,
          "internalType": "bytes32",
          "name": "transactionHash",
          "type": "bytes32"
        },
        {
          "indexed": false,
          "internalType": "uint256",
          "name": "timestamp",
          "type": "uint256"
        },
        {
          "indexed": false,
          "internalType": "uint256",
          "name": "confidenceScore",
          "type": "uint256"
        },
        {
          "indexed": false,
          "internalType": "string",
          "name": "metadata",
          "type": "string"
        }
      ],
      "name": "FraudDetected",
      "type": "event"
    },
    {
      "inputs": [
        {
          "internalType": "uint256",
          "name": "",
          "type": "uint256"
        }
      ],
      "name": "fraudRecords",
      "outputs": [
        {
          "internalType": "bytes32",
          "name": "transactionHash",
          "type": "bytes32"
        },
        {
          "internalType": "uint256",
          "name": "timestamp",
          "type": "uint256"
        },
        {
          "internalType": "uint256",
          "name": "confidenceScore",
          "type": "uint256"
        },
        {
          "internalType": "string",
          "name": "metadata",
          "type": "string"
        }
      ],
      "stateMutability": "view",
      "type": "function",
      "constant": true
    },
    {
      "inputs": [
        {
          "internalType": "bytes32",
          "name": "_transactionHash",
          "type": "bytes32"
        },
        {
          "internalType": "uint256",
          "name": "_confidenceScore",
          "type": "uint256"
        },
        {
          "internalType": "string",
          "name": "_metadata",
          "type": "string"
        }
      ],
      "name": "logFraud",
      "outputs": [
        {
          "internalType": "uint256",
          "name": "",
          "type": "uint256"
        }
      ],
      "stateMutability": "nonpayable",
      "type": "function"
    },
    {
      "inputs": [],
      "name": "getFraudCount",
      "outputs": [
        {
          "internalType": "uint256",
          "name": "",
          "type": "uint256"
        }
      ],
      "stateMutability": "view",
      "type": "function",
      "constant": true
    },
    {
      "inputs": [
        {
          "internalType": "uint256",
          "name": "_index",
          "type": "uint256"
        }
      ],
      "name": "getFraudRecord",
      "outputs": [
        {
          "internalType": "bytes32",
          "name": "transactionHash",
          "type": "bytes32"
        },
        {
          "internalType": "uint256",
          "name": "timestamp",
          "type": "uint256"
        },
        {
          "internalType": "uint256",
          "name": "confidenceScore",
          "type": "uint256"
        },
        {
          "internalType": "string",
          "name": "metadata",
          "type": "string"
        }
      ],
      "stateMutability": "view",
      "type": "function",
      "constant": true
    }
  ],
  "bytecode": "0x608060405234801561001057600080fd5b506107c1806100206000396000f3fe608060405234801561001057600080fd5b506004361061004c5760003560e01c80631778503e146100515780631acb51171461007d5780632380c4f214610090578063882f6a7b146100b1575b600080fd5b61006461005f3660046104b5565b6100b9565b60405161007494939291906104ce565b60405180910390f35b61006461008b3660046104b5565b610181565b6100a361009e366004610532565b6102d8565b604051908152602001610074565b6000546100a3565b600081815481106100c957600080fd5b90600052602060002090600402016000915090508060000154908060010154908060020154908060030180546100fe906105b2565b80601f016020809104026020016040519081016040528092919081815260200182805461012a906105b2565b80156101775780601f1061014c57610100808354040283529160200191610177565b820191906000526020600020905b81548152906001019060200180831161015a57829003601f168201915b5050505050905084565b6000806000606060008054905085106101d75760405162461bcd60e51b8152602060048201526013602482015272496e646578206f7574206f6620626f756e647360681b60448201526064015b60405180910390fd5b60008086815481106101eb576101eb6105ec565b9060005260206000209060040201604051806080016040529081600082015481526020016001820154815260200160028201548152602001600382018054610232906105b2565b80601f016020809104026020016040519081016040528092919081815260200182805461025e906105b2565b80156102ab5780601f10610280576101008083540402835291602001916102ab565b820191906000526020600020905b81548152906001019060200180831161028e57829003601f168201915b505050919092525050815160208301516040840151606090940151919a9099509297509550909350505050565b6000606484111561033a5760405162461bcd60e51b815260206004820152602660248201527f436f6e666964656e63652073636f7265206d757374206265206265747765656e604482015265020302d3130360d41b60648201526084016101ce565b60004290506000604051806080016040528088815260200183815260200187815260200186868080601f01602080910402602001604051908101604052809392919081815260200183838082843760009201829052509390945250508054600181018255908052825160049091027f290decd9548b62a8d60345a988386fc84ba6bc95484008f6362f93160ef3e563810191825560208401517f290decd9548b62a8d60345a988386fc84ba6bc95484008f6362f93160ef3e56482015560408401517f290decd9548b62a8d60345a988386fc84ba6bc95484008f6362f93160ef3e565820155606084015193945084939192507f290decd9548b62a8d60345a988386fc84ba6bc95484008f6362f93160ef3e566019061045a9082610667565b505050867f0c8c0831c6c926bbedd4bf3e9a63f69750d1fc8d7b62614fd61987c08e1b8af5838888886040516104939493929190610727565b60405180910390a26000546104aa90600190610764565b979650505050505050565b6000602082840312156104c757600080fd5b5035919050565b84815260006020858184015284604084015260806060840152835180608085015260005b8181101561050e5785810183015185820160a0015282016104f2565b50600060a0828601015260a0601f19601f8301168501019250505095945050505050565b6000806000806060858703121561054857600080fd5b8435935060208501359250604085013567ffffffffffffffff8082111561056e57600080fd5b818701915087601f83011261058257600080fd5b81358181111561059157600080fd5b8860208285010111156105a357600080fd5b95989497505060200194505050565b600181811c908216806105c657607f821691505b6020821081036105e657634e487b7160e01b600052602260045260246000fd5b50919050565b634e487b7160e01b600052603260045260246000fd5b634e487b7160e01b600052604160045260246000fd5b601f82111561066257600081815260208120601f850160051c8101602086101561063f5750805b601f850160051c820191505b8181101561065e5782815560010161064b565b5050505b505050565b815167ffffffffffffffff81111561068157610681610602565b6106958161068f84546105b2565b84610618565b602080601f8311600181146106ca57600084156106b25750858301515b600019600386901b1c1916600185901b17855561065e565b600085815260208120601f198616915b828110156106f9578886015182559484019460019091019084016106da565b50858210156107175787850151600019600388901b60f8161c191681555b5050505050600190811b01905550565b84815283602082015260606040820152816060820152818360808301376000818301608090810191909152601f909201601f191601019392505050565b8181038181111561078557634e487b7160e01b600052601160045260246000fd5b9291505056fea2646970667358221220667b012af3d35d9a6ce9a941bf8e066105723708fbfd1a731257ced49a54390364736f6c63430008130033",
  "immutableReferences": {},
  "source": "// SPDX-License-Identifier: MIT\r\npragma solidity ^0.8.17;\r\n\r\ncontract FraudLogger {\r\n    struct FraudRecord {\r\n        bytes32 transactionHash;\r\n        uint256 timestamp;\r\n        uint256 confidenceScore; // 0-100 representing confidence percentage\r\n        string metadata;\r\n    }\r\n    \r\n    FraudRecord[] public fraudRecords;\r\n    \r\n    event FraudDetected(\r\n        bytes32 indexed transactionHash,\r\n        uint256 timestamp,\r\n        uint256 confidenceScore,\r\n        string metadata\r\n    );\r\n    \r\n    function logFraud(\r\n        bytes32 _transactionHash,\r\n        uint256 _confidenceScore,\r\n        string calldata _metadata\r\n    ) external returns (uint256) {\r\n        require(_confidenceScore <= 100, \"Confidence score must be between 0-100\");\r\n        \r\n        uint256 timestamp = block.timestamp;\r\n        \r\n        // Create new fraud record\r\n        FraudRecord memory newRecord = FraudRecord(\r\n            _transactionHash,\r\n            timestamp,\r\n            _confidenceScore,\r\n            _metadata\r\n        );\r\n        \r\n        // Add to storage\r\n        fraudRecords.push(newRecord);\r\n        \r\n        // Emit event\r\n        emit FraudDetected(\r\n            _transactionHash,\r\n            timestamp,\r\n            _confidenceScore,\r\n            _metadata\r\n        );\r\n        \r\n        return fraudRecords.length - 1;\r\n    }\r\n    \r\n    function getFraudCount() external view returns (uint256) {\r\n        return fraudRecords.length;\r\n    }\r\n    \r\n    function getFraudRecord(uint256 _index) external view returns (\r\n        bytes32 transactionHash,\r\n        uint256 timestamp,\r\n        uint256 confidenceScore,\r\n        string memory metadata\r\n    ) {\r\n        require(_index < fraudRecords.length, \"Index out of bounds\");\r\n        \r\n        FraudRecord memory record = fraudRecords[_index];\r\n        \r\n        return (\r\n            record.transactionHash,\r\n            record.timestamp,\r\n            record.confidenceScore,\r\n            record.metadata\r\n        );\r\n    }\r\n}\r\n",
  "sourcePath": "C:\\Files\\FreeLancing\\Blockchain\\debit-fraud-project\\contracts\\FraudLogger.sol",
  "compiler": {
    "name": "solc",
    "version": "0.8.19+commit.7dd6d404.Emscripten.clang"
  },
  "schemaVersion": "3.4.16",
  "updatedAt": "2025-04-12T11:29:59.053Z",
  "networkType": "ethereum",
  "devdoc": {
    "kind": "dev",
    "methods": {},
    "version": 1
  },
  "userdoc": {
    "kind": "user",
    "methods": {},
    "version": 1
  }
}